{
  "contractName": "Todo",
  "abi": [
    {
      "constant": true,
      "inputs": [
        {
          "name": "",
          "type": "uint256"
        }
      ],
      "name": "tasks",
      "outputs": [
        {
          "name": "id",
          "type": "uint256"
        },
        {
          "name": "description",
          "type": "string"
        },
        {
          "name": "completed",
          "type": "bool"
        }
      ],
      "payable": false,
      "stateMutability": "view",
      "type": "function",
      "signature": "0x8d977672"
    },
    {
      "constant": true,
      "inputs": [],
      "name": "taskCount",
      "outputs": [
        {
          "name": "",
          "type": "uint256"
        }
      ],
      "payable": false,
      "stateMutability": "view",
      "type": "function",
      "signature": "0xb6cb58a5"
    },
    {
      "inputs": [],
      "payable": false,
      "stateMutability": "nonpayable",
      "type": "constructor",
      "signature": "constructor"
    },
    {
      "constant": false,
      "inputs": [
        {
          "name": "_description",
          "type": "string"
        }
      ],
      "name": "addTask",
      "outputs": [],
      "payable": false,
      "stateMutability": "nonpayable",
      "type": "function",
      "signature": "0x67238562"
    }
  ],
  "bytecode": "0x60806040526000805534801561001457600080fd5b50610089606060405190810160405280602e81526020017f54686973207461736b20697320637265617465642062792064656661756c742081526020017f627920636f6e7374727563746f7200000000000000000000000000000000000081525061008e640100000000026401000000009004565b610195565b60008054600190810180835560408051606081018252828152602080820187815282840187905293865284815291909420845181559151805192936100db939085019291909101906100fa565b50604091909101516002909101805460ff191691151591909117905550565b828054600181600116156101000203166002900490600052602060002090601f016020900481019282601f1061013b57805160ff1916838001178555610168565b82800160010185558215610168579182015b8281111561016857825182559160200191906001019061014d565b50610174929150610178565b5090565b61019291905b80821115610174576000815560010161017e565b90565b6103cd806101a46000396000f3fe608060405260043610610050577c010000000000000000000000000000000000000000000000000000000060003504636723856281146100555780638d9776721461010a578063b6cb58a5146101be575b600080fd5b34801561006157600080fd5b506101086004803603602081101561007857600080fd5b81019060208101813564010000000081111561009357600080fd5b8201836020820111156100a557600080fd5b803590602001918460018302840111640100000000831117156100c757600080fd5b91908080601f0160208091040260200160405190810160405280939291908181526020018383808284376000920191909152509295506101e5945050505050565b005b34801561011657600080fd5b506101346004803603602081101561012d57600080fd5b5035610251565b604051808481526020018060200183151515158152602001828103825284818151815260200191508051906020019080838360005b83811015610181578181015183820152602001610169565b50505050905090810190601f1680156101ae5780820380516001836020036101000a031916815260200191505b5094505050505060405180910390f35b3480156101ca57600080fd5b506101d3610300565b60408051918252519081900360200190f35b600080546001908101808355604080516060810182528281526020808201878152828401879052938652848152919094208451815591518051929361023293908501929190910190610306565b50604091909101516002909101805460ff191691151591909117905550565b600160208181526000928352604092839020805481840180548651600296821615610100026000190190911695909504601f810185900485028601850190965285855290949193929091908301828280156102ed5780601f106102c2576101008083540402835291602001916102ed565b820191906000526020600020905b8154815290600101906020018083116102d057829003601f168201915b5050506002909301549192505060ff1683565b60005481565b828054600181600116156101000203166002900490600052602060002090601f016020900481019282601f1061034757805160ff1916838001178555610374565b82800160010185558215610374579182015b82811115610374578251825591602001919060010190610359565b50610380929150610384565b5090565b61039e91905b80821115610380576000815560010161038a565b9056fea165627a7a723058208cd4f05a4ff4333ec4738157b5b0f47fa6b6f57fad18cec0d8fb4d7b60c6a86d0029",
  "source": "//solium-disable linebreak-style\r\npragma solidity >=0.4.21 < 0.6.0;\r\n\r\ncontract Todo{\r\n\r\n    uint public taskCount = 0;\r\n\r\n    struct Task{\r\n        uint id;\r\n        string description;\r\n        bool completed;\r\n    }\r\n\r\n    constructor() public{\r\n        addTask(\"This task is created by default by constructor\");\r\n    }\r\n\r\n    mapping(uint => Task) public tasks;\r\n\r\n    function addTask(string memory _description) public {\r\n        taskCount++;\r\n        tasks[taskCount] = Task(taskCount, _description, false);\r\n\r\n    }\r\n\r\n}",
  "sourcePath": "C:/Users/James/Desktop/blockchains/todo/contracts/TodoList.sol",
  "compiler": {
    "name": "solc",
    "version": "0.5.1+commit.c8a2cb62.Emscripten.clang"
  },
  "schemaVersion": "3.0.2",
  "updatedAt": "2019-02-25T16:23:51.877Z",
  "devdoc": {
    "methods": {}
  },
  "userdoc": {
    "methods": {}
  }
}